{
  "contractName": "Lottery",
  "abi": [
    {
      "constant": true,
      "inputs": [],
      "name": "owner",
      "outputs": [
        {
          "name": "",
          "type": "address"
        }
      ],
      "payable": false,
      "stateMutability": "view",
      "type": "function"
    },
    {
      "constant": true,
      "inputs": [
        {
          "name": "",
          "type": "uint256"
        }
      ],
      "name": "players",
      "outputs": [
        {
          "name": "",
          "type": "address"
        }
      ],
      "payable": false,
      "stateMutability": "view",
      "type": "function"
    },
    {
      "inputs": [],
      "payable": false,
      "stateMutability": "nonpayable",
      "type": "constructor"
    },
    {
      "constant": false,
      "inputs": [],
      "name": "enter",
      "outputs": [],
      "payable": true,
      "stateMutability": "payable",
      "type": "function"
    },
    {
      "constant": false,
      "inputs": [],
      "name": "pickWinner",
      "outputs": [],
      "payable": false,
      "stateMutability": "nonpayable",
      "type": "function"
    },
    {
      "constant": true,
      "inputs": [],
      "name": "getPlayers",
      "outputs": [
        {
          "name": "",
          "type": "address[]"
        }
      ],
      "payable": false,
      "stateMutability": "view",
      "type": "function"
    }
  ],
  "bytecode": "0x608060405234801561001057600080fd5b50336000806101000a81548173ffffffffffffffffffffffffffffffffffffffff021916908373ffffffffffffffffffffffffffffffffffffffff16021790555061067f806100606000396000f30060806040526004361061006d576000357c0100000000000000000000000000000000000000000000000000000000900463ffffffff1680635d495aea146100725780638b5b9ccc146100895780638da5cb5b146100f5578063e97dcb621461014c578063f71d96cb14610156575b600080fd5b34801561007e57600080fd5b506100876101c3565b005b34801561009557600080fd5b5061009e61031b565b6040518080602001828103825283818151815260200191508051906020019060200280838360005b838110156100e15780820151818401526020810190506100c6565b505050509050019250505060405180910390f35b34801561010157600080fd5b5061010a6103a9565b604051808273ffffffffffffffffffffffffffffffffffffffff1673ffffffffffffffffffffffffffffffffffffffff16815260200191505060405180910390f35b6101546103ce565b005b34801561016257600080fd5b506101816004803603810190808035906020019092919050505061044a565b604051808273ffffffffffffffffffffffffffffffffffffffff1673ffffffffffffffffffffffffffffffffffffffff16815260200191505060405180910390f35b60008060009054906101000a900473ffffffffffffffffffffffffffffffffffffffff1673ffffffffffffffffffffffffffffffffffffffff163373ffffffffffffffffffffffffffffffffffffffff1614151561022057600080fd5b60018054905061022e610488565b81151561023757fe5b06905060018181548110151561024957fe5b9060005260206000200160009054906101000a900473ffffffffffffffffffffffffffffffffffffffff1673ffffffffffffffffffffffffffffffffffffffff166108fc3073ffffffffffffffffffffffffffffffffffffffff16319081150290604051600060405180830381858888f193505050501580156102d0573d6000803e3d6000fd5b5060006040519080825280602002602001820160405280156103015781602001602082028038833980820191505090505b5060019080519060200190610317929190610586565b5050565b6060600180548060200260200160405190810160405280929190818152602001828054801561039f57602002820191906000526020600020905b8160009054906101000a900473ffffffffffffffffffffffffffffffffffffffff1673ffffffffffffffffffffffffffffffffffffffff1681526020019060010190808311610355575b5050505050905090565b6000809054906101000a900473ffffffffffffffffffffffffffffffffffffffff1681565b655af3107a4000341115156103e257600080fd5b60013390806001815401808255809150509060018203906000526020600020016000909192909190916101000a81548173ffffffffffffffffffffffffffffffffffffffff021916908373ffffffffffffffffffffffffffffffffffffffff16021790555050565b60018181548110151561045957fe5b906000526020600020016000915054906101000a900473ffffffffffffffffffffffffffffffffffffffff1681565b60004442600160405160200180848152602001838152602001828054801561050557602002820191906000526020600020905b8160009054906101000a900473ffffffffffffffffffffffffffffffffffffffff1673ffffffffffffffffffffffffffffffffffffffff16815260200190600101908083116104bb575b505093505050506040516020818303038152906040526040518082805190602001908083835b602083101515610550578051825260208201915060208101905060208303925061052b565b6001836020036101000a038019825116818451168082178552505050505050905001915050604051809103902060019004905090565b8280548282559060005260206000209081019282156105ff579160200282015b828111156105fe5782518260006101000a81548173ffffffffffffffffffffffffffffffffffffffff021916908373ffffffffffffffffffffffffffffffffffffffff160217905550916020019190600101906105a6565b5b50905061060c9190610610565b5090565b61065091905b8082111561064c57600081816101000a81549073ffffffffffffffffffffffffffffffffffffffff021916905550600101610616565b5090565b905600a165627a7a72305820d6562c3930bcae262aacce35741cafb99e1425a4bbf8c9b7249688f696b43a610029",
  "source": "pragma solidity ^0.4.22;\n\n\ncontract Lottery {\n\n    // 莊家\n    address public owner;\n\n    // 玩家\n    address[] public players;\n\n    constructor() public\n    {\n        // 合約發布者為莊家\n        owner = msg.sender;\n    }\n\n    // 下注\n    function enter() public payable\n    {\n        require(msg.value > .0001 ether);\n        players.push(msg.sender);\n    }\n\n    // 產生隨機整數\n    function random() private view returns (uint)\n    {\n        return uint(keccak256(abi.encodePacked(block.difficulty, now, players)));\n    }\n\n    // 限制只能由莊家執行\n    modifier ownerOnly ()\n    {\n        require(msg.sender == owner);\n        _;\n    }\n\n    // 莊家選擇贏家\n    function pickWinner() public ownerOnly\n    {\n        uint index = random() % players.length;\n        players[index].transfer(address(this).balance);\n        players = new address[](0);\n    }\n\n    // 回傳目前玩家名單\n    function getPlayers() public view returns (address[])\n    {\n        return players;\n    }\n}\n",
  "sourcePath": "/Users/sean0720/Dropbox/Code/Ethereum-dApp/Laravel/ethereum-lottery/truffle/contracts/Lottery.sol",
  "compiler": {
    "name": "solc",
    "version": "0.4.24+commit.e67f0147.Emscripten.clang"
  },
  "schemaVersion": "2.0.1",
  "updatedAt": "2018-08-15T16:34:56.762Z"
}