{
  "contractName": "SimpleStorage",
  "abi": [
    {
      "constant": false,
      "inputs": [
        {
          "name": "x",
          "type": "bytes32"
        }
      ],
      "name": "set",
      "outputs": [],
      "payable": false,
      "stateMutability": "nonpayable",
      "type": "function"
    },
    {
      "constant": true,
      "inputs": [],
      "name": "get",
      "outputs": [
        {
          "name": "",
          "type": "bytes32"
        }
      ],
      "payable": false,
      "stateMutability": "view",
      "type": "function"
    }
  ],
  "bytecode": "0x608060405234801561001057600080fd5b5060ef8061001f6000396000f3006080604052600436106049576000357c0100000000000000000000000000000000000000000000000000000000900463ffffffff1680636d4ce63c14604e578063db80813f14607e575b600080fd5b348015605957600080fd5b50606060ac565b60405180826000191660001916815260200191505060405180910390f35b348015608957600080fd5b5060aa600480360381019080803560001916906020019092919050505060b5565b005b60008054905090565b8060008160001916905550505600a165627a7a72305820c911850542b7df3d3d5a44b74eb68f611699a316f8c5ca011fcc39a4f4401b620029",
  "source": "pragma solidity ^0.4.22;\n\n\ncontract SimpleStorage {\n  bytes32 storedData;\n\n  function set(bytes32 x) public {\n    storedData = x;\n  }\n\n  function get() public view returns (bytes32) {\n    return storedData;\n  }\n}\n",
  "sourcePath": "/Users/sean0720/Dropbox/Code/Ethereum-dApp/Laravel/ethereum-lottery/truffle/contracts/SimpleStorage.sol",
  "compiler": {
    "name": "solc",
    "version": "0.4.24+commit.e67f0147.Emscripten.clang"
  },
  "schemaVersion": "2.0.1",
  "updatedAt": "2018-08-12T13:44:11.546Z"
}